{
  "contractName": "CertificateSystem",
  "abi": [
    {
      "inputs": [],
      "stateMutability": "nonpayable",
      "type": "constructor"
    },
    {
      "anonymous": false,
      "inputs": [
        {
          "indexed": false,
          "internalType": "string",
          "name": "id",
          "type": "string"
        },
        {
          "indexed": false,
          "internalType": "string",
          "name": "studentName",
          "type": "string"
        },
        {
          "indexed": false,
          "internalType": "address",
          "name": "studentAddress",
          "type": "address"
        }
      ],
      "name": "CertificateGenerated",
      "type": "event"
    },
    {
      "anonymous": false,
      "inputs": [
        {
          "indexed": false,
          "internalType": "string",
          "name": "id",
          "type": "string"
        },
        {
          "indexed": false,
          "internalType": "address",
          "name": "teacher",
          "type": "address"
        }
      ],
      "name": "CertificateSigned",
      "type": "event"
    },
    {
      "anonymous": false,
      "inputs": [
        {
          "indexed": false,
          "internalType": "string",
          "name": "id",
          "type": "string"
        }
      ],
      "name": "CertificateValidated",
      "type": "event"
    },
    {
      "anonymous": false,
      "inputs": [
        {
          "indexed": false,
          "internalType": "address",
          "name": "student",
          "type": "address"
        }
      ],
      "name": "StudentAdded",
      "type": "event"
    },
    {
      "anonymous": false,
      "inputs": [
        {
          "indexed": false,
          "internalType": "address",
          "name": "teacher",
          "type": "address"
        }
      ],
      "name": "TeacherAdded",
      "type": "event"
    },
    {
      "inputs": [],
      "name": "direction",
      "outputs": [
        {
          "internalType": "address",
          "name": "",
          "type": "address"
        }
      ],
      "stateMutability": "view",
      "type": "function",
      "constant": true
    },
    {
      "inputs": [
        {
          "internalType": "address",
          "name": "",
          "type": "address"
        }
      ],
      "name": "students",
      "outputs": [
        {
          "internalType": "bool",
          "name": "",
          "type": "bool"
        }
      ],
      "stateMutability": "view",
      "type": "function",
      "constant": true
    },
    {
      "inputs": [
        {
          "internalType": "address",
          "name": "",
          "type": "address"
        }
      ],
      "name": "teachers",
      "outputs": [
        {
          "internalType": "bool",
          "name": "",
          "type": "bool"
        }
      ],
      "stateMutability": "view",
      "type": "function",
      "constant": true
    },
    {
      "inputs": [
        {
          "internalType": "address",
          "name": "_teacher",
          "type": "address"
        }
      ],
      "name": "addTeacher",
      "outputs": [],
      "stateMutability": "nonpayable",
      "type": "function"
    },
    {
      "inputs": [
        {
          "internalType": "address",
          "name": "_student",
          "type": "address"
        }
      ],
      "name": "addStudent",
      "outputs": [],
      "stateMutability": "nonpayable",
      "type": "function"
    },
    {
      "inputs": [
        {
          "internalType": "string",
          "name": "_id",
          "type": "string"
        },
        {
          "internalType": "string",
          "name": "_studentName",
          "type": "string"
        },
        {
          "internalType": "address",
          "name": "_studentAddress",
          "type": "address"
        },
        {
          "internalType": "string",
          "name": "_diplomaTitle",
          "type": "string"
        },
        {
          "internalType": "string",
          "name": "_mention",
          "type": "string"
        },
        {
          "internalType": "uint256",
          "name": "_issueDate",
          "type": "uint256"
        }
      ],
      "name": "generateCertificate",
      "outputs": [],
      "stateMutability": "nonpayable",
      "type": "function"
    },
    {
      "inputs": [
        {
          "internalType": "string",
          "name": "_id",
          "type": "string"
        }
      ],
      "name": "signCertificate",
      "outputs": [],
      "stateMutability": "nonpayable",
      "type": "function"
    },
    {
      "inputs": [
        {
          "internalType": "string",
          "name": "_id",
          "type": "string"
        }
      ],
      "name": "validateCertificate",
      "outputs": [],
      "stateMutability": "nonpayable",
      "type": "function"
    },
    {
      "inputs": [
        {
          "internalType": "string",
          "name": "_id",
          "type": "string"
        }
      ],
      "name": "verifyCertificate",
      "outputs": [
        {
          "internalType": "bool",
          "name": "",
          "type": "bool"
        }
      ],
      "stateMutability": "view",
      "type": "function",
      "constant": true
    },
    {
      "inputs": [
        {
          "internalType": "string",
          "name": "_id",
          "type": "string"
        }
      ],
      "name": "getCertificate",
      "outputs": [
        {
          "internalType": "string",
          "name": "id",
          "type": "string"
        },
        {
          "internalType": "string",
          "name": "studentName",
          "type": "string"
        },
        {
          "internalType": "address",
          "name": "studentAddress",
          "type": "address"
        },
        {
          "internalType": "string",
          "name": "diplomaTitle",
          "type": "string"
        },
        {
          "internalType": "string",
          "name": "mention",
          "type": "string"
        },
        {
          "internalType": "uint256",
          "name": "issueDate",
          "type": "uint256"
        },
        {
          "internalType": "bool",
          "name": "teacherSigned",
          "type": "bool"
        },
        {
          "internalType": "bool",
          "name": "validated",
          "type": "bool"
        },
        {
          "internalType": "address",
          "name": "signedByTeacher",
          "type": "address"
        }
      ],
      "stateMutability": "view",
      "type": "function",
      "constant": true
    },
    {
      "inputs": [
        {
          "internalType": "address",
          "name": "_user",
          "type": "address"
        }
      ],
      "name": "getMyRole",
      "outputs": [
        {
          "internalType": "string",
          "name": "",
          "type": "string"
        }
      ],
      "stateMutability": "view",
      "type": "function",
      "constant": true
    },
    {
      "inputs": [],
      "name": "getAllCertificateIds",
      "outputs": [
        {
          "internalType": "string[]",
          "name": "",
          "type": "string[]"
        }
      ],
      "stateMutability": "view",
      "type": "function",
      "constant": true
    },
    {
      "inputs": [
        {
          "internalType": "string",
          "name": "_id",
          "type": "string"
        }
      ],
      "name": "getStudentCertificate",
      "outputs": [
        {
          "internalType": "string",
          "name": "",
          "type": "string"
        },
        {
          "internalType": "string",
          "name": "",
          "type": "string"
        },
        {
          "internalType": "string",
          "name": "",
          "type": "string"
        },
        {
          "internalType": "string",
          "name": "",
          "type": "string"
        },
        {
          "internalType": "bool",
          "name": "",
          "type": "bool"
        },
        {
          "internalType": "bool",
          "name": "",
          "type": "bool"
        }
      ],
      "stateMutability": "view",
      "type": "function",
      "constant": true
    }
  ],
  "bytecode": "0x608060405234801561001057600080fd5b50336000806101000a81548173ffffffffffffffffffffffffffffffffffffffff021916908373ffffffffffffffffffffffffffffffffffffffff160217905550612cdf806100606000396000f3fe608060405234801561001057600080fd5b50600436106100cf5760003560e01c80638fa44e151161008c578063d97c100f11610066578063d97c100f146101fc578063ed0f2e751461022c578063f0a47f7814610264578063fe9b12a714610294576100cf565b80638fa44e1514610192578063a6c807a9146101b0578063bd06ea19146101e0576100cf565b80632df68d72146100d45780633bc6e309146100f057806348b4e2891461010c578063508254c214610128578063645539ed146101445780638b23d87514610162575b600080fd5b6100ee60048036038101906100e99190611dd0565b6102c9565b005b61010a60048036038101906101059190611e77565b610517565b005b61012660048036038101906101219190611eda565b6106a6565b005b610142600480360381019061013d9190611dd0565b610b45565b005b61014c610d85565b6040516101599190611fe6565b60405180910390f35b61017c60048036038101906101779190611dd0565b610da9565b604051610189919061201c565b60405180910390f35b61019a610e51565b6040516101a79190612178565b60405180910390f35b6101ca60048036038101906101c59190611e77565b610f2a565b6040516101d7919061201c565b60405180910390f35b6101fa60048036038101906101f59190611e77565b610f4a565b005b61021660048036038101906102119190611e77565b6110d9565b60405161022391906121e4565b60405180910390f35b61024660048036038101906102419190611dd0565b6112c7565b60405161025b99989796959493929190612215565b60405180910390f35b61027e60048036038101906102799190611e77565b611710565b60405161028b919061201c565b60405180910390f35b6102ae60048036038101906102a99190611dd0565b611730565b6040516102c0969594939291906122be565b60405180910390f35b60008054906101000a900473ffffffffffffffffffffffffffffffffffffffff1673ffffffffffffffffffffffffffffffffffffffff163373ffffffffffffffffffffffffffffffffffffffff1614610357576040517f08c379a000000000000000000000000000000000000000000000000000000000815260040161034e906123ad565b60405180910390fd5b806001816040516103689190612409565b908152602001604051809103902060060160169054906101000a900460ff166103c6576040517f08c379a00000000000000000000000000000000000000000000000000000000081526004016103bd9061246c565b60405180910390fd5b6001826040516103d69190612409565b908152602001604051809103902060060160009054906101000a900460ff16610434576040517f08c379a000000000000000000000000000000000000000000000000000000000815260040161042b906124d8565b60405180910390fd5b6001826040516104449190612409565b908152602001604051809103902060060160019054906101000a900460ff16156104a3576040517f08c379a000000000000000000000000000000000000000000000000000000000815260040161049a90612544565b60405180910390fd5b600180836040516104b49190612409565b908152602001604051809103902060060160016101000a81548160ff0219169083151502179055507f1e5cbc838f0cf3cf15d0833286acf1efb95ffec32dcab661ef2d80e7553802848260405161050b91906121e4565b60405180910390a15050565b60008054906101000a900473ffffffffffffffffffffffffffffffffffffffff1673ffffffffffffffffffffffffffffffffffffffff163373ffffffffffffffffffffffffffffffffffffffff16146105a5576040517f08c379a000000000000000000000000000000000000000000000000000000000815260040161059c906123ad565b60405180910390fd5b600073ffffffffffffffffffffffffffffffffffffffff168173ffffffffffffffffffffffffffffffffffffffff1603610614576040517f08c379a000000000000000000000000000000000000000000000000000000000815260040161060b906125b0565b60405180910390fd5b6001600260008373ffffffffffffffffffffffffffffffffffffffff1673ffffffffffffffffffffffffffffffffffffffff16815260200190815260200160002060006101000a81548160ff0219169083151502179055507f04e1c63d2b2fafca3496ea9c3f23b77835b9a91f5d74802ced76b7f929b3265e8160405161069b9190611fe6565b60405180910390a150565b60008054906101000a900473ffffffffffffffffffffffffffffffffffffffff1673ffffffffffffffffffffffffffffffffffffffff163373ffffffffffffffffffffffffffffffffffffffff1614610734576040517f08c379a000000000000000000000000000000000000000000000000000000000815260040161072b906123ad565b60405180910390fd5b6001866040516107449190612409565b908152602001604051809103902060060160169054906101000a900460ff16156107a3576040517f08c379a000000000000000000000000000000000000000000000000000000000815260040161079a9061261c565b60405180910390fd5b600073ffffffffffffffffffffffffffffffffffffffff168473ffffffffffffffffffffffffffffffffffffffff1603610812576040517f08c379a000000000000000000000000000000000000000000000000000000000815260040161080990612688565b60405180910390fd5b6000865111610856576040517f08c379a000000000000000000000000000000000000000000000000000000000815260040161084d906126f4565b60405180910390fd5b600085511161089a576040517f08c379a000000000000000000000000000000000000000000000000000000000815260040161089190612760565b60405180910390fd5b60008351116108de576040517f08c379a00000000000000000000000000000000000000000000000000000000081526004016108d5906127cc565b60405180910390fd5b6040518061014001604052808781526020018681526020018573ffffffffffffffffffffffffffffffffffffffff168152602001848152602001838152602001828152602001600015158152602001600015158152602001600073ffffffffffffffffffffffffffffffffffffffff1681526020016001151581525060018760405161096a9190612409565b9081526020016040518091039020600082015181600001908161098d91906129f8565b5060208201518160010190816109a391906129f8565b5060408201518160020160006101000a81548173ffffffffffffffffffffffffffffffffffffffff021916908373ffffffffffffffffffffffffffffffffffffffff1602179055506060820151816003019081610a0091906129f8565b506080820151816004019081610a1691906129f8565b5060a0820151816005015560c08201518160060160006101000a81548160ff02191690831515021790555060e08201518160060160016101000a81548160ff0219169083151502179055506101008201518160060160026101000a81548173ffffffffffffffffffffffffffffffffffffffff021916908373ffffffffffffffffffffffffffffffffffffffff1602179055506101208201518160060160166101000a81548160ff021916908315150217905550905050600486908060018154018082558091505060019003906000526020600020016000909190919091509081610b0191906129f8565b507f4c234e0f55b498334bbccedd38e6ff382163b1dfcf4813376fd0980200bf62a5868686604051610b3593929190612aca565b60405180910390a1505050505050565b600260003373ffffffffffffffffffffffffffffffffffffffff1673ffffffffffffffffffffffffffffffffffffffff16815260200190815260200160002060009054906101000a900460ff16610bd1576040517f08c379a0000000000000000000000000000000000000000000000000000000008152600401610bc890612b5b565b60405180910390fd5b80600181604051610be29190612409565b908152602001604051809103902060060160169054906101000a900460ff16610c40576040517f08c379a0000000000000000000000000000000000000000000000000000000008152600401610c379061246c565b60405180910390fd5b600182604051610c509190612409565b908152602001604051809103902060060160009054906101000a900460ff1615610caf576040517f08c379a0000000000000000000000000000000000000000000000000000000008152600401610ca690612bc7565b60405180910390fd5b60018083604051610cc09190612409565b908152602001604051809103902060060160006101000a81548160ff02191690831515021790555033600183604051610cf99190612409565b908152602001604051809103902060060160026101000a81548173ffffffffffffffffffffffffffffffffffffffff021916908373ffffffffffffffffffffffffffffffffffffffff1602179055507f59696a1eb741b3baa97d6f634b77c7f7f2b9cf70a3d9be4c41e8f38cb1d69cac8233604051610d79929190612be7565b60405180910390a15050565b60008054906101000a900473ffffffffffffffffffffffffffffffffffffffff1681565b600081600181604051610dbc9190612409565b908152602001604051809103902060060160169054906101000a900460ff16610e1a576040517f08c379a0000000000000000000000000000000000000000000000000000000008152600401610e119061246c565b60405180910390fd5b600183604051610e2a9190612409565b908152602001604051809103902060060160019054906101000a900460ff16915050919050565b60606004805480602002602001604051908101604052809291908181526020016000905b82821015610f21578382906000526020600020018054610e949061281b565b80601f0160208091040260200160405190810160405280929190818152602001828054610ec09061281b565b8015610f0d5780601f10610ee257610100808354040283529160200191610f0d565b820191906000526020600020905b815481529060010190602001808311610ef057829003601f168201915b505050505081526020019060010190610e75565b50505050905090565b60036020528060005260406000206000915054906101000a900460ff1681565b60008054906101000a900473ffffffffffffffffffffffffffffffffffffffff1673ffffffffffffffffffffffffffffffffffffffff163373ffffffffffffffffffffffffffffffffffffffff1614610fd8576040517f08c379a0000000000000000000000000000000000000000000000000000000008152600401610fcf906123ad565b60405180910390fd5b600073ffffffffffffffffffffffffffffffffffffffff168173ffffffffffffffffffffffffffffffffffffffff1603611047576040517f08c379a000000000000000000000000000000000000000000000000000000000815260040161103e90612688565b60405180910390fd5b6001600360008373ffffffffffffffffffffffffffffffffffffffff1673ffffffffffffffffffffffffffffffffffffffff16815260200190815260200160002060006101000a81548160ff0219169083151502179055507f0e247955258b6547e8cccc2c23a51bde067ec81cbc12b12ee10ee47f2e333a4b816040516110ce9190611fe6565b60405180910390a150565b606060008054906101000a900473ffffffffffffffffffffffffffffffffffffffff1673ffffffffffffffffffffffffffffffffffffffff168273ffffffffffffffffffffffffffffffffffffffff160361116b576040518060400160405280600981526020017f646972656374696f6e000000000000000000000000000000000000000000000081525090506112c2565b600260008373ffffffffffffffffffffffffffffffffffffffff1673ffffffffffffffffffffffffffffffffffffffff16815260200190815260200160002060009054906101000a900460ff16156111fa576040518060400160405280600781526020017f746561636865720000000000000000000000000000000000000000000000000081525090506112c2565b600360008373ffffffffffffffffffffffffffffffffffffffff1673ffffffffffffffffffffffffffffffffffffffff16815260200190815260200160002060009054906101000a900460ff1615611289576040518060400160405280600781526020017f73747564656e740000000000000000000000000000000000000000000000000081525090506112c2565b6040518060400160405280600781526020017f76697369746f720000000000000000000000000000000000000000000000000081525090505b919050565b6060806000606080600080600080896001816040516112e69190612409565b908152602001604051809103902060060160169054906101000a900460ff16611344576040517f08c379a000000000000000000000000000000000000000000000000000000000815260040161133b9061246c565b60405180910390fd5b600060018c6040516113569190612409565b9081526020016040518091039020604051806101400160405290816000820180546113809061281b565b80601f01602080910402602001604051908101604052809291908181526020018280546113ac9061281b565b80156113f95780601f106113ce576101008083540402835291602001916113f9565b820191906000526020600020905b8154815290600101906020018083116113dc57829003601f168201915b505050505081526020016001820180546114129061281b565b80601f016020809104026020016040519081016040528092919081815260200182805461143e9061281b565b801561148b5780601f106114605761010080835404028352916020019161148b565b820191906000526020600020905b81548152906001019060200180831161146e57829003601f168201915b505050505081526020016002820160009054906101000a900473ffffffffffffffffffffffffffffffffffffffff1673ffffffffffffffffffffffffffffffffffffffff1673ffffffffffffffffffffffffffffffffffffffff1681526020016003820180546114fa9061281b565b80601f01602080910402602001604051908101604052809291908181526020018280546115269061281b565b80156115735780601f1061154857610100808354040283529160200191611573565b820191906000526020600020905b81548152906001019060200180831161155657829003601f168201915b5050505050815260200160048201805461158c9061281b565b80601f01602080910402602001604051908101604052809291908181526020018280546115b89061281b565b80156116055780601f106115da57610100808354040283529160200191611605565b820191906000526020600020905b8154815290600101906020018083116115e857829003601f168201915b50505050508152602001600582015481526020016006820160009054906101000a900460ff161515151581526020016006820160019054906101000a900460ff161515151581526020016006820160029054906101000a900473ffffffffffffffffffffffffffffffffffffffff1673ffffffffffffffffffffffffffffffffffffffff1673ffffffffffffffffffffffffffffffffffffffff1681526020016006820160169054906101000a900460ff1615151515815250509050806000015181602001518260400151836060015184608001518560a001518660c001518760e001518861010001519a509a509a509a509a509a509a509a509a5050509193959799909294969850565b60026020528060005260406000206000915054906101000a900460ff1681565b6060806060806000808660018160405161174a9190612409565b908152602001604051809103902060060160169054906101000a900460ff166117a8576040517f08c379a000000000000000000000000000000000000000000000000000000000815260040161179f9061246c565b60405180910390fd5b60006001896040516117ba9190612409565b9081526020016040518091039020604051806101400160405290816000820180546117e49061281b565b80601f01602080910402602001604051908101604052809291908181526020018280546118109061281b565b801561185d5780601f106118325761010080835404028352916020019161185d565b820191906000526020600020905b81548152906001019060200180831161184057829003601f168201915b505050505081526020016001820180546118769061281b565b80601f01602080910402602001604051908101604052809291908181526020018280546118a29061281b565b80156118ef5780601f106118c4576101008083540402835291602001916118ef565b820191906000526020600020905b8154815290600101906020018083116118d257829003601f168201915b505050505081526020016002820160009054906101000a900473ffffffffffffffffffffffffffffffffffffffff1673ffffffffffffffffffffffffffffffffffffffff1673ffffffffffffffffffffffffffffffffffffffff16815260200160038201805461195e9061281b565b80601f016020809104026020016040519081016040528092919081815260200182805461198a9061281b565b80156119d75780601f106119ac576101008083540402835291602001916119d7565b820191906000526020600020905b8154815290600101906020018083116119ba57829003601f168201915b505050505081526020016004820180546119f09061281b565b80601f0160208091040260200160405190810160405280929190818152602001828054611a1c9061281b565b8015611a695780601f10611a3e57610100808354040283529160200191611a69565b820191906000526020600020905b815481529060010190602001808311611a4c57829003601f168201915b50505050508152602001600582015481526020016006820160009054906101000a900460ff161515151581526020016006820160019054906101000a900460ff161515151581526020016006820160029054906101000a900473ffffffffffffffffffffffffffffffffffffffff1673ffffffffffffffffffffffffffffffffffffffff1673ffffffffffffffffffffffffffffffffffffffff1681526020016006820160169054906101000a900460ff1615151515815250509050806040015173ffffffffffffffffffffffffffffffffffffffff163373ffffffffffffffffffffffffffffffffffffffff161480611bae575060008054906101000a900473ffffffffffffffffffffffffffffffffffffffff1673ffffffffffffffffffffffffffffffffffffffff163373ffffffffffffffffffffffffffffffffffffffff16145b80611c025750600260003373ffffffffffffffffffffffffffffffffffffffff1673ffffffffffffffffffffffffffffffffffffffff16815260200190815260200160002060009054906101000a900460ff165b611c41576040517f08c379a0000000000000000000000000000000000000000000000000000000008152600401611c3890612c89565b60405180910390fd5b80600001518160200151826060015183608001518460c001518560e00151975097509750975097509750505091939550919395565b6000604051905090565b600080fd5b600080fd5b600080fd5b600080fd5b6000601f19601f8301169050919050565b7f4e487b7100000000000000000000000000000000000000000000000000000000600052604160045260246000fd5b611cdd82611c94565b810181811067ffffffffffffffff82111715611cfc57611cfb611ca5565b5b80604052505050565b6000611d0f611c76565b9050611d1b8282611cd4565b919050565b600067ffffffffffffffff821115611d3b57611d3a611ca5565b5b611d4482611c94565b9050602081019050919050565b82818337600083830152505050565b6000611d73611d6e84611d20565b611d05565b905082815260208101848484011115611d8f57611d8e611c8f565b5b611d9a848285611d51565b509392505050565b600082601f830112611db757611db6611c8a565b5b8135611dc7848260208601611d60565b91505092915050565b600060208284031215611de657611de5611c80565b5b600082013567ffffffffffffffff811115611e0457611e03611c85565b5b611e1084828501611da2565b91505092915050565b600073ffffffffffffffffffffffffffffffffffffffff82169050919050565b6000611e4482611e19565b9050919050565b611e5481611e39565b8114611e5f57600080fd5b50565b600081359050611e7181611e4b565b92915050565b600060208284031215611e8d57611e8c611c80565b5b6000611e9b84828501611e62565b91505092915050565b6000819050919050565b611eb781611ea4565b8114611ec257600080fd5b50565b600081359050611ed481611eae565b92915050565b60008060008060008060c08789031215611ef757611ef6611c80565b5b600087013567ffffffffffffffff811115611f1557611f14611c85565b5b611f2189828a01611da2565b965050602087013567ffffffffffffffff811115611f4257611f41611c85565b5b611f4e89828a01611da2565b9550506040611f5f89828a01611e62565b945050606087013567ffffffffffffffff811115611f8057611f7f611c85565b5b611f8c89828a01611da2565b935050608087013567ffffffffffffffff811115611fad57611fac611c85565b5b611fb989828a01611da2565b92505060a0611fca89828a01611ec5565b9150509295509295509295565b611fe081611e39565b82525050565b6000602082019050611ffb6000830184611fd7565b92915050565b60008115159050919050565b61201681612001565b82525050565b6000602082019050612031600083018461200d565b92915050565b600081519050919050565b600082825260208201905092915050565b6000819050602082019050919050565b600081519050919050565b600082825260208201905092915050565b60005b8381101561209d578082015181840152602081019050612082565b60008484015250505050565b60006120b482612063565b6120be818561206e565b93506120ce81856020860161207f565b6120d781611c94565b840191505092915050565b60006120ee83836120a9565b905092915050565b6000602082019050919050565b600061210e82612037565b6121188185612042565b93508360208202850161212a85612053565b8060005b85811015612166578484038952815161214785826120e2565b9450612152836120f6565b925060208a0199505060018101905061212e565b50829750879550505050505092915050565b600060208201905081810360008301526121928184612103565b905092915050565b600082825260208201905092915050565b60006121b682612063565b6121c0818561219a565b93506121d081856020860161207f565b6121d981611c94565b840191505092915050565b600060208201905081810360008301526121fe81846121ab565b905092915050565b61220f81611ea4565b82525050565b6000610120820190508181036000830152612230818c6121ab565b90508181036020830152612244818b6121ab565b9050612253604083018a611fd7565b818103606083015261226581896121ab565b9050818103608083015261227981886121ab565b905061228860a0830187612206565b61229560c083018661200d565b6122a260e083018561200d565b6122b0610100830184611fd7565b9a9950505050505050505050565b600060c08201905081810360008301526122d881896121ab565b905081810360208301526122ec81886121ab565b9050818103604083015261230081876121ab565b9050818103606083015261231481866121ab565b9050612323608083018561200d565b61233060a083018461200d565b979650505050505050565b7f4f6e6c7920646972656374696f6e2063616e20646f207468697320616374696f60008201527f6e00000000000000000000000000000000000000000000000000000000000000602082015250565b600061239760218361219a565b91506123a28261233b565b604082019050919050565b600060208201905081810360008301526123c68161238a565b9050919050565b600081905092915050565b60006123e382612063565b6123ed81856123cd565b93506123fd81856020860161207f565b80840191505092915050565b600061241582846123d8565b915081905092915050565b7f436572746966696361746520646f6573206e6f74206578697374000000000000600082015250565b6000612456601a8361219a565b915061246182612420565b602082019050919050565b6000602082019050818103600083015261248581612449565b9050919050565b7f54656163686572206d757374207369676e206669727374000000000000000000600082015250565b60006124c260178361219a565b91506124cd8261248c565b602082019050919050565b600060208201905081810360008301526124f1816124b5565b9050919050565b7f436572746966696361746520616c72656164792076616c696461746564000000600082015250565b600061252e601d8361219a565b9150612539826124f8565b602082019050919050565b6000602082019050818103600083015261255d81612521565b9050919050565b7f496e76616c696420746561636865722061646472657373000000000000000000600082015250565b600061259a60178361219a565b91506125a582612564565b602082019050919050565b600060208201905081810360008301526125c98161258d565b9050919050565b7f436572746966696361746520494420616c726561647920657869737473000000600082015250565b6000612606601d8361219a565b9150612611826125d0565b602082019050919050565b60006020820190508181036000830152612635816125f9565b9050919050565b7f496e76616c69642073747564656e742061646472657373000000000000000000600082015250565b600061267260178361219a565b915061267d8261263c565b602082019050919050565b600060208201905081810360008301526126a181612665565b9050919050565b7f4365727469666963617465204944206973207265717569726564000000000000600082015250565b60006126de601a8361219a565b91506126e9826126a8565b602082019050919050565b6000602082019050818103600083015261270d816126d1565b9050919050565b7f53747564656e74206e616d652069732072657175697265640000000000000000600082015250565b600061274a60188361219a565b915061275582612714565b602082019050919050565b600060208201905081810360008301526127798161273d565b9050919050565b7f4469706c6f6d61207469746c6520697320726571756972656400000000000000600082015250565b60006127b660198361219a565b91506127c182612780565b602082019050919050565b600060208201905081810360008301526127e5816127a9565b9050919050565b7f4e487b7100000000000000000000000000000000000000000000000000000000600052602260045260246000fd5b6000600282049050600182168061283357607f821691505b602082108103612846576128456127ec565b5b50919050565b60008190508160005260206000209050919050565b60006020601f8301049050919050565b600082821b905092915050565b6000600883026128ae7fffffffffffffffffffffffffffffffffffffffffffffffffffffffffffffffff82612871565b6128b88683612871565b95508019841693508086168417925050509392505050565b6000819050919050565b60006128f56128f06128eb84611ea4565b6128d0565b611ea4565b9050919050565b6000819050919050565b61290f836128da565b61292361291b826128fc565b84845461287e565b825550505050565b600090565b61293861292b565b612943818484612906565b505050565b5b818110156129675761295c600082612930565b600181019050612949565b5050565b601f8211156129ac5761297d8161284c565b61298684612861565b81016020851015612995578190505b6129a96129a185612861565b830182612948565b50505b505050565b600082821c905092915050565b60006129cf600019846008026129b1565b1980831691505092915050565b60006129e883836129be565b9150826002028217905092915050565b612a0182612063565b67ffffffffffffffff811115612a1a57612a19611ca5565b5b612a24825461281b565b612a2f82828561296b565b600060209050601f831160018114612a625760008415612a50578287015190505b612a5a85826129dc565b865550612ac2565b601f198416612a708661284c565b60005b82811015612a9857848901518255600182019150602085019450602081019050612a73565b86831015612ab55784890151612ab1601f8916826129be565b8355505b6001600288020188555050505b505050505050565b60006060820190508181036000830152612ae481866121ab565b90508181036020830152612af881856121ab565b9050612b076040830184611fd7565b949350505050565b7f4f6e6c7920746561636865722063616e20646f207468697320616374696f6e00600082015250565b6000612b45601f8361219a565b9150612b5082612b0f565b602082019050919050565b60006020820190508181036000830152612b7481612b38565b9050919050565b7f436572746966696361746520616c7265616479207369676e6564000000000000600082015250565b6000612bb1601a8361219a565b9150612bbc82612b7b565b602082019050919050565b60006020820190508181036000830152612be081612ba4565b9050919050565b60006040820190508181036000830152612c0181856121ab565b9050612c106020830184611fd7565b9392505050565b7f4e6f7420617574686f72697a656420746f20766965772074686973206365727460008201527f6966696361746500000000000000000000000000000000000000000000000000602082015250565b6000612c7360278361219a565b9150612c7e82612c17565b604082019050919050565b60006020820190508181036000830152612ca281612c66565b905091905056fea264697066735822122068901256fdb9b197731327ec0fff557c65f94a2b38c823474a9572edc6fb580764736f6c63430008130033",
  "immutableReferences": {},
  "source": "// SPDX-License-Identifier: MIT\r\npragma solidity ^0.8.19;\r\n\r\n// Contrat permettant de gérer les diplômes sur la blockchain.\r\ncontract CertificateSystem {\r\n\r\n    // Adresse de la direction (administrateur principal du système).\r\n    address public direction;\r\n\r\n    // Structure représentant les informations d'un certificat.\r\n    struct Certificate {\r\n        string id;\r\n        string studentName;\r\n        address studentAddress;\r\n        string diplomaTitle;\r\n        string mention;\r\n        uint256 issueDate;\r\n        bool teacherSigned;\r\n        bool validated;\r\n        address signedByTeacher;\r\n        bool exists;\r\n    }\r\n\r\n    // Stockage des certificats à partir de leur identifiant.\r\n    mapping(string => Certificate) private certificates;\r\n\r\n    // Liste des enseignants autorisés dans le système.\r\n    mapping(address => bool) public teachers;\r\n\r\n    // Liste des étudiants autorisés dans le système.\r\n    mapping(address => bool) public students;\r\n\r\n    // Tableau contenant tous les identifiants des certificats créés.\r\n    string[] private certificateIds;\r\n\r\n    // Evénements utilisés pour notifier les actions importantes du contrat.\r\n    event TeacherAdded(address teacher);\r\n    event StudentAdded(address student);\r\n    event CertificateGenerated(string id, string studentName, address studentAddress);\r\n    event CertificateSigned(string id, address teacher);\r\n    event CertificateValidated(string id);\r\n    \r\n    // Le constructeur initialise l'adresse de la direction lors du déploiement.\r\n    constructor() {\r\n        direction = msg.sender;\r\n    }\r\n\r\n    // Vérifie que la fonction est appelée uniquement par la direction.\r\n    modifier onlyDirection() {\r\n        require(msg.sender == direction, \"Only direction can do this action\");\r\n        _;\r\n    }\r\n\r\n    // Vérifie que l'utilisateur est un enseignant autorisé.\r\n    modifier onlyTeacher() {\r\n        require(teachers[msg.sender], \"Only teacher can do this action\");\r\n        _;\r\n    }\r\n\r\n    // Vérifie que l'utilisateur est un étudiant autorisé.\r\n    modifier onlyStudent() {\r\n        require(students[msg.sender], \"Only student can do this action\");\r\n        _;\r\n    }\r\n\r\n    // Vérifie que le certificat existe avant d'exécuter la fonction.\r\n    modifier certificateExists(string memory _id) {\r\n        require(certificates[_id].exists, \"Certificate does not exist\");\r\n        _;\r\n    }\r\n\r\n    // Ajoute un enseignant autorisé dans le système.\r\n    function addTeacher(address _teacher) public onlyDirection {\r\n        require(_teacher != address(0), \"Invalid teacher address\");\r\n        teachers[_teacher] = true;\r\n        emit TeacherAdded(_teacher);\r\n    }\r\n\r\n    // Ajoute un étudiant autorisé dans le système.\r\n    function addStudent(address _student) public onlyDirection {\r\n        require(_student != address(0), \"Invalid student address\");\r\n        students[_student] = true;\r\n        emit StudentAdded(_student);\r\n    }\r\n\r\n    // Génère un certificat et l'enregistre sur la blockchain.\r\n    function generateCertificate(\r\n        string memory _id,\r\n        string memory _studentName,\r\n        address _studentAddress,\r\n        string memory _diplomaTitle,\r\n        string memory _mention,\r\n        uint256 _issueDate\r\n    ) public onlyDirection {\r\n\r\n        // Vérifie que le certificat n'existe pas déjà.\r\n        require(!certificates[_id].exists, \"Certificate ID already exists\");\r\n\r\n        // Vérifie la validité de l'adresse de l'étudiant.\r\n        require(_studentAddress != address(0), \"Invalid student address\");\r\n\r\n        // Vérifie que les champs obligatoires ne sont pas vides.\r\n        require(bytes(_id).length > 0, \"Certificate ID is required\");\r\n        require(bytes(_studentName).length > 0, \"Student name is required\");\r\n        require(bytes(_diplomaTitle).length > 0, \"Diploma title is required\");\r\n\r\n        // Création et enregistrement du certificat.\r\n        certificates[_id] = Certificate({\r\n            id: _id,\r\n            studentName: _studentName,\r\n            studentAddress: _studentAddress,\r\n            diplomaTitle: _diplomaTitle,\r\n            mention: _mention,\r\n            issueDate: _issueDate,\r\n            teacherSigned: false,\r\n            validated: false,\r\n            signedByTeacher: address(0),\r\n            exists: true\r\n        });\r\n\r\n        // Ajout de l'identifiant dans la liste des certificats.\r\n        certificateIds.push(_id);\r\n\r\n        // Emission d'un événement pour notifier la création.\r\n        emit CertificateGenerated(_id, _studentName, _studentAddress);\r\n    }\r\n\r\n    // Permet à un enseignant de signer un certificat.\r\n    function signCertificate(string memory _id)\r\n        public\r\n        onlyTeacher\r\n        certificateExists(_id)\r\n    {\r\n        // Vérifie que le certificat n'a pas déjà été signé.\r\n        require(!certificates[_id].teacherSigned, \"Certificate already signed\");\r\n\r\n        certificates[_id].teacherSigned = true;\r\n        certificates[_id].signedByTeacher = msg.sender;\r\n\r\n        emit CertificateSigned(_id, msg.sender);\r\n    }\r\n\r\n    // Permet à la direction de valider définitivement un certificat.\r\n    function validateCertificate(string memory _id)\r\n        public\r\n        onlyDirection\r\n        certificateExists(_id)\r\n    {\r\n        // Vérifie que l'enseignant a signé avant validation.\r\n        require(certificates[_id].teacherSigned, \"Teacher must sign first\");\r\n\r\n        // Vérifie que le certificat n'est pas déjà validé.\r\n        require(!certificates[_id].validated, \"Certificate already validated\");\r\n\r\n        certificates[_id].validated = true;\r\n\r\n        emit CertificateValidated(_id);\r\n    }\r\n\r\n    // Vérifie publiquement si un certificat est valide.\r\n    function verifyCertificate(string memory _id)\r\n        public\r\n        view\r\n        certificateExists(_id)\r\n        returns (bool)\r\n    {\r\n        return certificates[_id].validated;\r\n    }\r\n\r\n    // Retourne toutes les informations d'un certificat.\r\n    function getCertificate(string memory _id)\r\n        public\r\n        view\r\n        certificateExists(_id)\r\n        returns (\r\n            string memory id,\r\n            string memory studentName,\r\n            address studentAddress,\r\n            string memory diplomaTitle,\r\n            string memory mention,\r\n            uint256 issueDate,\r\n            bool teacherSigned,\r\n            bool validated,\r\n            address signedByTeacher\r\n        )\r\n    {\r\n        Certificate memory cert = certificates[_id];\r\n\r\n        return (\r\n            cert.id,\r\n            cert.studentName,\r\n            cert.studentAddress,\r\n            cert.diplomaTitle,\r\n            cert.mention,\r\n            cert.issueDate,\r\n            cert.teacherSigned,\r\n            cert.validated,\r\n            cert.signedByTeacher\r\n        );\r\n    }\r\n\r\n    // Retourne le rôle de l'utilisateur connecté.\r\n    function getMyRole(address _user) public view returns (string memory) {\r\n        if (_user == direction) {\r\n            return \"direction\";\r\n        }\r\n        if (teachers[_user]) {\r\n            return \"teacher\";\r\n        }\r\n        if (students[_user]) {\r\n            return \"student\";\r\n        }\r\n        return \"visitor\";\r\n    }\r\n\r\n    // Retourne la liste de tous les certificats enregistrés.\r\n    function getAllCertificateIds() public view returns (string[] memory) {\r\n        return certificateIds;\r\n    }\r\n\r\n    // Permet à l'étudiant ou aux acteurs autorisés de consulter un certificat.\r\n    function getStudentCertificate(string memory _id)\r\n        public\r\n        view\r\n        certificateExists(_id)\r\n        returns (\r\n            string memory,\r\n            string memory,\r\n            string memory,\r\n            string memory,\r\n            bool,\r\n            bool\r\n        )\r\n    {\r\n        Certificate memory cert = certificates[_id];\r\n\r\n        // Vérifie que l'utilisateur est autorisé à voir ce certificat.\r\n        require(\r\n            msg.sender == cert.studentAddress || msg.sender == direction || teachers[msg.sender],\r\n            \"Not authorized to view this certificate\"\r\n        );\r\n\r\n        return (\r\n            cert.id,\r\n            cert.studentName,\r\n            cert.diplomaTitle,\r\n            cert.mention,\r\n            cert.teacherSigned,\r\n            cert.validated\r\n        );\r\n    }\r\n}",
  "sourcePath": "C:\\Users\\ayoub\\projet-certificats\\blockchain\\contracts\\CertificateSystem.sol",
  "compiler": {
    "name": "solc",
    "version": "0.8.19+commit.7dd6d404.Emscripten.clang"
  },
  "schemaVersion": "3.4.16",
  "updatedAt": "2026-03-16T15:04:53.637Z",
  "networkType": "ethereum",
  "devdoc": {
    "kind": "dev",
    "methods": {},
    "version": 1
  },
  "userdoc": {
    "kind": "user",
    "methods": {},
    "version": 1
  }
}